{
  "_format": "hh-sol-artifact-1",
  "contractName": "Aggregator",
  "sourceName": "contracts/Aggregator.sol",
  "abi": [
    {
      "inputs": [],
      "stateMutability": "nonpayable",
      "type": "constructor"
    },
    {
      "inputs": [
        {
          "internalType": "address",
          "name": "owner",
          "type": "address"
        }
      ],
      "name": "OwnableInvalidOwner",
      "type": "error"
    },
    {
      "inputs": [
        {
          "internalType": "address",
          "name": "account",
          "type": "address"
        }
      ],
      "name": "OwnableUnauthorizedAccount",
      "type": "error"
    },
    {
      "anonymous": false,
      "inputs": [
        {
          "indexed": false,
          "internalType": "string",
          "name": "dexName",
          "type": "string"
        },
        {
          "indexed": false,
          "internalType": "address",
          "name": "dex",
          "type": "address"
        },
        {
          "indexed": false,
          "internalType": "uint256",
          "name": "amountOut",
          "type": "uint256"
        }
      ],
      "name": "BestRouteFound",
      "type": "event"
    },
    {
      "anonymous": false,
      "inputs": [
        {
          "indexed": false,
          "internalType": "string",
          "name": "name",
          "type": "string"
        },
        {
          "indexed": true,
          "internalType": "address",
          "name": "quoterAddress",
          "type": "address"
        },
        {
          "indexed": false,
          "internalType": "uint256",
          "name": "index",
          "type": "uint256"
        }
      ],
      "name": "DexAdded",
      "type": "event"
    },
    {
      "anonymous": false,
      "inputs": [
        {
          "indexed": false,
          "internalType": "uint256",
          "name": "index",
          "type": "uint256"
        },
        {
          "indexed": false,
          "internalType": "string",
          "name": "name",
          "type": "string"
        },
        {
          "indexed": true,
          "internalType": "address",
          "name": "quoterAddress",
          "type": "address"
        },
        {
          "indexed": false,
          "internalType": "bool",
          "name": "enabled",
          "type": "bool"
        }
      ],
      "name": "DexUpdated",
      "type": "event"
    },
    {
      "anonymous": false,
      "inputs": [
        {
          "indexed": true,
          "internalType": "address",
          "name": "token",
          "type": "address"
        },
        {
          "indexed": false,
          "internalType": "uint256",
          "name": "amount",
          "type": "uint256"
        }
      ],
      "name": "FeesClaimed",
      "type": "event"
    },
    {
      "anonymous": false,
      "inputs": [
        {
          "indexed": true,
          "internalType": "address",
          "name": "previousOwner",
          "type": "address"
        },
        {
          "indexed": true,
          "internalType": "address",
          "name": "newOwner",
          "type": "address"
        }
      ],
      "name": "OwnershipTransferred",
      "type": "event"
    },
    {
      "inputs": [
        {
          "internalType": "string",
          "name": "_name",
          "type": "string"
        },
        {
          "internalType": "address",
          "name": "_quoterAddress",
          "type": "address"
        },
        {
          "internalType": "address",
          "name": "_routerAddress",
          "type": "address"
        }
      ],
      "name": "addDex",
      "outputs": [],
      "stateMutability": "nonpayable",
      "type": "function"
    },
    {
      "inputs": [
        {
          "internalType": "address",
          "name": "token",
          "type": "address"
        }
      ],
      "name": "claimFees",
      "outputs": [],
      "stateMutability": "nonpayable",
      "type": "function"
    },
    {
      "inputs": [
        {
          "internalType": "uint256",
          "name": "",
          "type": "uint256"
        }
      ],
      "name": "dexRegistry",
      "outputs": [
        {
          "internalType": "string",
          "name": "name",
          "type": "string"
        },
        {
          "internalType": "address",
          "name": "quoterAddress",
          "type": "address"
        },
        {
          "internalType": "address",
          "name": "routerAddress",
          "type": "address"
        },
        {
          "internalType": "bool",
          "name": "enabled",
          "type": "bool"
        }
      ],
      "stateMutability": "view",
      "type": "function"
    },
    {
      "inputs": [
        {
          "internalType": "address",
          "name": "_tokenIn",
          "type": "address"
        },
        {
          "internalType": "address",
          "name": "_tokenOut",
          "type": "address"
        },
        {
          "internalType": "uint256",
          "name": "_amountIn",
          "type": "uint256"
        },
        {
          "internalType": "uint256",
          "name": "_amountOutMinimum",
          "type": "uint256"
        },
        {
          "internalType": "address",
          "name": "_recipient",
          "type": "address"
        }
      ],
      "name": "executeSwap",
      "outputs": [
        {
          "internalType": "uint256",
          "name": "amountOut",
          "type": "uint256"
        }
      ],
      "stateMutability": "nonpayable",
      "type": "function"
    },
    {
      "inputs": [
        {
          "internalType": "uint256",
          "name": "",
          "type": "uint256"
        }
      ],
      "name": "fees",
      "outputs": [
        {
          "internalType": "uint24",
          "name": "",
          "type": "uint24"
        }
      ],
      "stateMutability": "view",
      "type": "function"
    },
    {
      "inputs": [
        {
          "internalType": "address",
          "name": "_tokenIn",
          "type": "address"
        },
        {
          "internalType": "address",
          "name": "_tokenOut",
          "type": "address"
        },
        {
          "internalType": "uint256",
          "name": "_amountIn",
          "type": "uint256"
        }
      ],
      "name": "findBestRoute",
      "outputs": [
        {
          "internalType": "uint256",
          "name": "bestDexIndex",
          "type": "uint256"
        },
        {
          "internalType": "address",
          "name": "bestQuoterAddress",
          "type": "address"
        },
        {
          "internalType": "uint256",
          "name": "bestAmountOut",
          "type": "uint256"
        },
        {
          "internalType": "uint24",
          "name": "bestFee",
          "type": "uint24"
        }
      ],
      "stateMutability": "nonpayable",
      "type": "function"
    },
    {
      "inputs": [
        {
          "internalType": "address",
          "name": "_tokenIn",
          "type": "address"
        },
        {
          "internalType": "address",
          "name": "_tokenOut",
          "type": "address"
        },
        {
          "internalType": "uint256",
          "name": "_amountIn",
          "type": "uint256"
        }
      ],
      "name": "getBestQuote",
      "outputs": [
        {
          "internalType": "string",
          "name": "dexName",
          "type": "string"
        },
        {
          "internalType": "address",
          "name": "quoterAddress",
          "type": "address"
        },
        {
          "internalType": "uint256",
          "name": "amountOut",
          "type": "uint256"
        },
        {
          "internalType": "uint24",
          "name": "bestFee",
          "type": "uint24"
        }
      ],
      "stateMutability": "nonpayable",
      "type": "function"
    },
    {
      "inputs": [],
      "name": "getDexCount",
      "outputs": [
        {
          "internalType": "uint256",
          "name": "",
          "type": "uint256"
        }
      ],
      "stateMutability": "view",
      "type": "function"
    },
    {
      "inputs": [
        {
          "internalType": "uint256",
          "name": "_index",
          "type": "uint256"
        }
      ],
      "name": "getDexInfo",
      "outputs": [
        {
          "components": [
            {
              "internalType": "string",
              "name": "name",
              "type": "string"
            },
            {
              "internalType": "address",
              "name": "quoterAddress",
              "type": "address"
            },
            {
              "internalType": "address",
              "name": "routerAddress",
              "type": "address"
            },
            {
              "internalType": "bool",
              "name": "enabled",
              "type": "bool"
            }
          ],
          "internalType": "struct Aggregator.DexInfo",
          "name": "",
          "type": "tuple"
        }
      ],
      "stateMutability": "view",
      "type": "function"
    },
    {
      "inputs": [],
      "name": "owner",
      "outputs": [
        {
          "internalType": "address",
          "name": "",
          "type": "address"
        }
      ],
      "stateMutability": "view",
      "type": "function"
    },
    {
      "inputs": [],
      "name": "renounceOwnership",
      "outputs": [],
      "stateMutability": "nonpayable",
      "type": "function"
    },
    {
      "inputs": [
        {
          "internalType": "uint256",
          "name": "_index",
          "type": "uint256"
        }
      ],
      "name": "toggleDexStatus",
      "outputs": [],
      "stateMutability": "nonpayable",
      "type": "function"
    },
    {
      "inputs": [
        {
          "internalType": "uint256",
          "name": "_index",
          "type": "uint256"
        }
      ],
      "name": "toggleEnabled",
      "outputs": [],
      "stateMutability": "nonpayable",
      "type": "function"
    },
    {
      "inputs": [
        {
          "internalType": "address",
          "name": "newOwner",
          "type": "address"
        }
      ],
      "name": "transferOwnership",
      "outputs": [],
      "stateMutability": "nonpayable",
      "type": "function"
    },
    {
      "inputs": [
        {
          "internalType": "uint256",
          "name": "_index",
          "type": "uint256"
        },
        {
          "internalType": "string",
          "name": "_name",
          "type": "string"
        },
        {
          "internalType": "address",
          "name": "_quoterAddress",
          "type": "address"
        },
        {
          "internalType": "bool",
          "name": "_enabled",
          "type": "bool"
        }
      ],
      "name": "updateDex",
      "outputs": [],
      "stateMutability": "nonpayable",
      "type": "function"
    }
  ],
  "bytecode": "0x60a060405260405180606001604052806101f461ffff168152602001610bb861ffff16815260200161271061ffff1681525060019060036100419291906101a5565b5034801561004e57600080fd5b5033600073ffffffffffffffffffffffffffffffffffffffff168173ffffffffffffffffffffffffffffffffffffffff16036100c25760006040517f1e4fbdf70000000000000000000000000000000000000000000000000000000081526004016100b991906102af565b60405180910390fd5b6100d1816100e160201b60201c565b506107d0608081815250506102ca565b60008060009054906101000a900473ffffffffffffffffffffffffffffffffffffffff169050816000806101000a81548173ffffffffffffffffffffffffffffffffffffffff021916908373ffffffffffffffffffffffffffffffffffffffff1602179055508173ffffffffffffffffffffffffffffffffffffffff168173ffffffffffffffffffffffffffffffffffffffff167f8be0079c531659141344cd1fd0a4f28419497f9722a3daafe3b4186f6b6457e060405160405180910390a35050565b82805482825590600052602060002090600901600a900481019282156102405791602002820160005b8382111561020f57835183826101000a81548162ffffff021916908361ffff16021790555092602001926003016020816002010492830192600103026101ce565b801561023e5782816101000a81549062ffffff021916905560030160208160020104928301926001030261020f565b505b50905061024d9190610251565b5090565b5b8082111561026a576000816000905550600101610252565b5090565b600073ffffffffffffffffffffffffffffffffffffffff82169050919050565b60006102998261026e565b9050919050565b6102a98161028e565b82525050565b60006020820190506102c460008301846102a0565b92915050565b608051612d316102e56000396000610c700152612d316000f3fe608060405234801561001057600080fd5b50600436106100f55760003560e01c806373d84e4211610097578063a3bc57b011610066578063a3bc57b01461029f578063ac89ffa1146102bb578063ed361ea5146102d7578063f2fde38b146102f5576100f5565b806373d84e42146101eb5780638b97f58a1461021b5780638da5cb5b1461024e578063933fd81f1461026c576100f5565b806347a2a745116100d357806347a2a745146101795780634acc79ed146101955780636cb9eb74146101c5578063715018a6146101e1576100f5565b806315a0ea6a146100fa578063228c04b8146101165780633343808e14610149575b600080fd5b610114600480360381019061010f9190611a94565b610311565b005b610130600480360381019061012b9190611af7565b6104ab565b6040516101409493929190611c16565b60405180910390f35b610163600480360381019061015e9190611c62565b610591565b6040516101709190611d66565b60405180910390f35b610193600480360381019061018e9190611ee9565b61076d565b005b6101af60048036038101906101aa9190611c62565b61091b565b6040516101bc9190611f6c565b60405180910390f35b6101df60048036038101906101da9190611c62565b610954565b005b6101e9610b03565b005b61020560048036038101906102009190611f87565b610b17565b6040516102129190612002565b60405180910390f35b61023560048036038101906102309190611af7565b610f8e565b604051610245949392919061201d565b60405180910390f35b6102566112e1565b6040516102639190612062565b60405180910390f35b61028660048036038101906102819190611c62565b61130a565b604051610296949392919061208c565b60405180910390f35b6102b960048036038101906102b49190611c62565b61141f565b005b6102d560048036038101906102d091906120d8565b6115ce565b005b6102df6117e6565b6040516102ec9190612002565b60405180910390f35b61030f600480360381019061030a9190611a94565b6117f3565b005b610319611879565b60008173ffffffffffffffffffffffffffffffffffffffff166370a08231306040518263ffffffff1660e01b81526004016103549190612062565b602060405180830381865afa158015610371573d6000803e3d6000fd5b505050506040513d601f19601f82011682018060405250810190610395919061215c565b9050600081116103da576040517f08c379a00000000000000000000000000000000000000000000000000000000081526004016103d1906121d5565b60405180910390fd5b8173ffffffffffffffffffffffffffffffffffffffff1663a9059cbb33836040518363ffffffff1660e01b81526004016104159291906121f5565b6020604051808303816000875af1158015610434573d6000803e3d6000fd5b505050506040513d601f19601f820116820180604052508101906104589190612233565b508173ffffffffffffffffffffffffffffffffffffffff167f9493e5bbe4e8e0ac67284469a2d677403d0378a85a59e341d3abc433d0d9a2098260405161049f9190612002565b60405180910390a25050565b606060008060008060008060006104c38b8b8b610f8e565b9350935093509350600284815481106104df576104de612260565b5b906000526020600020906003020160000180546104fb906122be565b80601f0160208091040260200160405190810160405280929190818152602001828054610527906122be565b80156105745780601f1061054957610100808354040283529160200191610574565b820191906000526020600020905b81548152906001019060200180831161055757829003601f168201915b505050505097508296508195508094505050505093509350935093565b6105996119cc565b60028054905082106105e0576040517f08c379a00000000000000000000000000000000000000000000000000000000081526004016105d79061233b565b60405180910390fd5b600282815481106105f4576105f3612260565b5b906000526020600020906003020160405180608001604052908160008201805461061d906122be565b80601f0160208091040260200160405190810160405280929190818152602001828054610649906122be565b80156106965780601f1061066b57610100808354040283529160200191610696565b820191906000526020600020905b81548152906001019060200180831161067957829003601f168201915b505050505081526020016001820160009054906101000a900473ffffffffffffffffffffffffffffffffffffffff1673ffffffffffffffffffffffffffffffffffffffff1673ffffffffffffffffffffffffffffffffffffffff1681526020016002820160009054906101000a900473ffffffffffffffffffffffffffffffffffffffff1673ffffffffffffffffffffffffffffffffffffffff1673ffffffffffffffffffffffffffffffffffffffff1681526020016002820160149054906101000a900460ff1615151515815250509050919050565b610775611879565b60028054905084106107bc576040517f08c379a00000000000000000000000000000000000000000000000000000000081526004016107b39061233b565b60405180910390fd5b600073ffffffffffffffffffffffffffffffffffffffff168273ffffffffffffffffffffffffffffffffffffffff160361082b576040517f08c379a0000000000000000000000000000000000000000000000000000000008152600401610822906123a7565b60405180910390fd5b60006002858154811061084157610840612260565b5b90600052602060002090600302019050838160000190816108629190612573565b50828160010160006101000a81548173ffffffffffffffffffffffffffffffffffffffff021916908373ffffffffffffffffffffffffffffffffffffffff160217905550818160020160146101000a81548160ff0219169083151502179055508273ffffffffffffffffffffffffffffffffffffffff167f787834c5cc17e9e8336ef0e19e69b4dc087085a894819803b19cfe5722ed9e9386868560405161090c93929190612645565b60405180910390a25050505050565b6001818154811061092b57600080fd5b90600052602060002090600a9182820401919006600302915054906101000a900462ffffff1681565b61095c611879565b60028054905081106109a3576040517f08c379a000000000000000000000000000000000000000000000000000000000815260040161099a9061233b565b60405180910390fd5b600281815481106109b7576109b6612260565b5b906000526020600020906003020160020160149054906101000a900460ff1615600282815481106109eb576109ea612260565b5b906000526020600020906003020160020160146101000a81548160ff02191690831515021790555060028181548110610a2757610a26612260565b5b906000526020600020906003020160010160009054906101000a900473ffffffffffffffffffffffffffffffffffffffff1673ffffffffffffffffffffffffffffffffffffffff167f787834c5cc17e9e8336ef0e19e69b4dc087085a894819803b19cfe5722ed9e938260028481548110610aa557610aa4612260565b5b906000526020600020906003020160000160028581548110610aca57610ac9612260565b5b906000526020600020906003020160020160149054906101000a900460ff16604051610af893929190612707565b60405180910390a250565b610b0b611879565b610b156000611900565b565b60008073ffffffffffffffffffffffffffffffffffffffff168273ffffffffffffffffffffffffffffffffffffffff1603610b87576040517f08c379a0000000000000000000000000000000000000000000000000000000008152600401610b7e90612791565b60405180910390fd5b600080600080610b988a8a8a610f8e565b935093509350935086821015610be3576040517f08c379a0000000000000000000000000000000000000000000000000000000008152600401610bda906127fd565b60405180910390fd5b8973ffffffffffffffffffffffffffffffffffffffff166323b872dd33308b6040518463ffffffff1660e01b8152600401610c209392919061281d565b6020604051808303816000875af1158015610c3f573d6000803e3d6000fd5b505050506040513d601f19601f82011682018060405250810190610c639190612233565b50600083905060006127107f00000000000000000000000000000000000000000000000000000000000000008b610c9a9190612883565b610ca491906128f4565b90506000818b610cb49190612925565b90508c73ffffffffffffffffffffffffffffffffffffffff1663095ea7b387836040518363ffffffff1660e01b8152600401610cf19291906121f5565b6020604051808303816000875af1158015610d10573d6000803e3d6000fd5b505050506040513d601f19601f82011682018060405250810190610d349190612233565b5060006040518061010001604052808f73ffffffffffffffffffffffffffffffffffffffff1681526020018e73ffffffffffffffffffffffffffffffffffffffff1681526020018662ffffff1681526020018b73ffffffffffffffffffffffffffffffffffffffff16815260200161038442610db09190612959565b81526020018d81526020018c8152602001600073ffffffffffffffffffffffffffffffffffffffff1681525090508373ffffffffffffffffffffffffffffffffffffffff1663414bf389826040518263ffffffff1660e01b8152600401610e179190612a5c565b6020604051808303816000875af1158015610e36573d6000803e3d6000fd5b505050506040513d601f19601f82011682018060405250810190610e5a919061215c565b98508a891015610e9f576040517f08c379a0000000000000000000000000000000000000000000000000000000008152600401610e96906127fd565b60405180910390fd5b8c73ffffffffffffffffffffffffffffffffffffffff1663a9059cbb8b8b6040518363ffffffff1660e01b8152600401610eda9291906121f5565b6020604051808303816000875af1158015610ef9573d6000803e3d6000fd5b505050506040513d601f19601f82011682018060405250810190610f1d9190612233565b507f1f45e6074f59189e78b3743561422d28e8cb8f14fd621fa0a44904df3447eb1c60028981548110610f5357610f52612260565b5b9060005260206000209060030201600001888b604051610f7593929190612a78565b60405180910390a1505050505050505095945050505050565b600080600080600073ffffffffffffffffffffffffffffffffffffffff168773ffffffffffffffffffffffffffffffffffffffff1603611003576040517f08c379a0000000000000000000000000000000000000000000000000000000008152600401610ffa90612b02565b60405180910390fd5b600073ffffffffffffffffffffffffffffffffffffffff168673ffffffffffffffffffffffffffffffffffffffff1603611072576040517f08c379a000000000000000000000000000000000000000000000000000000000815260040161106990612b6e565b60405180910390fd5b600085116110b5576040517f08c379a00000000000000000000000000000000000000000000000000000000081526004016110ac90612bda565b60405180910390fd5b6000915060005b60028054905081101561129457600281815481106110dd576110dc612260565b5b906000526020600020906003020160020160149054906101000a900460ff16156112875760005b6001805490508110156112855760006002838154811061112757611126612260565b5b906000526020600020906003020160010160009054906101000a900473ffffffffffffffffffffffffffffffffffffffff1690506001828154811061116f5761116e612260565b5b90600052602060002090600a91828204019190066003029054906101000a900462ffffff1693508073ffffffffffffffffffffffffffffffffffffffff1663f7729d438b8b878c60006040518663ffffffff1660e01b81526004016111d8959493929190612c35565b6020604051808303816000875af192505050801561121457506040513d601f19601f82011682018060405250810190611211919061215c565b60015b61121e5750611278565b8581111561127557809550839750600284815481106112405761123f612260565b5b906000526020600020906003020160010160009054906101000a900473ffffffffffffffffffffffffffffffffffffffff1696505b50505b8080600101915050611104565b505b80806001019150506110bc565b50600082116112d8576040517f08c379a00000000000000000000000000000000000000000000000000000000081526004016112cf90612cd4565b60405180910390fd5b93509350935093565b60008060009054906101000a900473ffffffffffffffffffffffffffffffffffffffff16905090565b6002818154811061131a57600080fd5b906000526020600020906003020160009150905080600001805461133d906122be565b80601f0160208091040260200160405190810160405280929190818152602001828054611369906122be565b80156113b65780601f1061138b576101008083540402835291602001916113b6565b820191906000526020600020905b81548152906001019060200180831161139957829003601f168201915b5050505050908060010160009054906101000a900473ffffffffffffffffffffffffffffffffffffffff16908060020160009054906101000a900473ffffffffffffffffffffffffffffffffffffffff16908060020160149054906101000a900460ff16905084565b611427611879565b600280549050811061146e576040517f08c379a00000000000000000000000000000000000000000000000000000000081526004016114659061233b565b60405180910390fd5b6002818154811061148257611481612260565b5b906000526020600020906003020160020160149054906101000a900460ff1615600282815481106114b6576114b5612260565b5b906000526020600020906003020160020160146101000a81548160ff021916908315150217905550600281815481106114f2576114f1612260565b5b906000526020600020906003020160010160009054906101000a900473ffffffffffffffffffffffffffffffffffffffff1673ffffffffffffffffffffffffffffffffffffffff167f787834c5cc17e9e8336ef0e19e69b4dc087085a894819803b19cfe5722ed9e9382600284815481106115705761156f612260565b5b90600052602060002090600302016000016002858154811061159557611594612260565b5b906000526020600020906003020160020160149054906101000a900460ff166040516115c393929190612707565b60405180910390a250565b6115d6611879565b600073ffffffffffffffffffffffffffffffffffffffff168273ffffffffffffffffffffffffffffffffffffffff1603611645576040517f08c379a000000000000000000000000000000000000000000000000000000000815260040161163c906123a7565b60405180910390fd5b60006002805490509050600260405180608001604052808681526020018573ffffffffffffffffffffffffffffffffffffffff1681526020018473ffffffffffffffffffffffffffffffffffffffff16815260200160011515815250908060018154018082558091505060019003906000526020600020906003020160009091909190915060008201518160000190816116df9190612573565b5060208201518160010160006101000a81548173ffffffffffffffffffffffffffffffffffffffff021916908373ffffffffffffffffffffffffffffffffffffffff16021790555060408201518160020160006101000a81548173ffffffffffffffffffffffffffffffffffffffff021916908373ffffffffffffffffffffffffffffffffffffffff16021790555060608201518160020160146101000a81548160ff02191690831515021790555050508273ffffffffffffffffffffffffffffffffffffffff167fa996cb2fb76f06529d6a56403f6ae3a1669ece05b5e092b2960759b229f520d185836040516117d8929190612cf4565b60405180910390a250505050565b6000600280549050905090565b6117fb611879565b600073ffffffffffffffffffffffffffffffffffffffff168173ffffffffffffffffffffffffffffffffffffffff160361186d5760006040517f1e4fbdf70000000000000000000000000000000000000000000000000000000081526004016118649190612062565b60405180910390fd5b61187681611900565b50565b6118816119c4565b73ffffffffffffffffffffffffffffffffffffffff1661189f6112e1565b73ffffffffffffffffffffffffffffffffffffffff16146118fe576118c26119c4565b6040517f118cdaa70000000000000000000000000000000000000000000000000000000081526004016118f59190612062565b60405180910390fd5b565b60008060009054906101000a900473ffffffffffffffffffffffffffffffffffffffff169050816000806101000a81548173ffffffffffffffffffffffffffffffffffffffff021916908373ffffffffffffffffffffffffffffffffffffffff1602179055508173ffffffffffffffffffffffffffffffffffffffff168173ffffffffffffffffffffffffffffffffffffffff167f8be0079c531659141344cd1fd0a4f28419497f9722a3daafe3b4186f6b6457e060405160405180910390a35050565b600033905090565b604051806080016040528060608152602001600073ffffffffffffffffffffffffffffffffffffffff168152602001600073ffffffffffffffffffffffffffffffffffffffff1681526020016000151581525090565b6000604051905090565b600080fd5b600080fd5b600073ffffffffffffffffffffffffffffffffffffffff82169050919050565b6000611a6182611a36565b9050919050565b611a7181611a56565b8114611a7c57600080fd5b50565b600081359050611a8e81611a68565b92915050565b600060208284031215611aaa57611aa9611a2c565b5b6000611ab884828501611a7f565b91505092915050565b6000819050919050565b611ad481611ac1565b8114611adf57600080fd5b50565b600081359050611af181611acb565b92915050565b600080600060608486031215611b1057611b0f611a2c565b5b6000611b1e86828701611a7f565b9350506020611b2f86828701611a7f565b9250506040611b4086828701611ae2565b9150509250925092565b600081519050919050565b600082825260208201905092915050565b60005b83811015611b84578082015181840152602081019050611b69565b60008484015250505050565b6000601f19601f8301169050919050565b6000611bac82611b4a565b611bb68185611b55565b9350611bc6818560208601611b66565b611bcf81611b90565b840191505092915050565b611be381611a56565b82525050565b611bf281611ac1565b82525050565b600062ffffff82169050919050565b611c1081611bf8565b82525050565b60006080820190508181036000830152611c308187611ba1565b9050611c3f6020830186611bda565b611c4c6040830185611be9565b611c596060830184611c07565b95945050505050565b600060208284031215611c7857611c77611a2c565b5b6000611c8684828501611ae2565b91505092915050565b600082825260208201905092915050565b6000611cab82611b4a565b611cb58185611c8f565b9350611cc5818560208601611b66565b611cce81611b90565b840191505092915050565b611ce281611a56565b82525050565b60008115159050919050565b611cfd81611ce8565b82525050565b60006080830160008301518482036000860152611d208282611ca0565b9150506020830151611d356020860182611cd9565b506040830151611d486040860182611cd9565b506060830151611d5b6060860182611cf4565b508091505092915050565b60006020820190508181036000830152611d808184611d03565b905092915050565b600080fd5b600080fd5b7f4e487b7100000000000000000000000000000000000000000000000000000000600052604160045260246000fd5b611dca82611b90565b810181811067ffffffffffffffff82111715611de957611de8611d92565b5b80604052505050565b6000611dfc611a22565b9050611e088282611dc1565b919050565b600067ffffffffffffffff821115611e2857611e27611d92565b5b611e3182611b90565b9050602081019050919050565b82818337600083830152505050565b6000611e60611e5b84611e0d565b611df2565b905082815260208101848484011115611e7c57611e7b611d8d565b5b611e87848285611e3e565b509392505050565b600082601f830112611ea457611ea3611d88565b5b8135611eb4848260208601611e4d565b91505092915050565b611ec681611ce8565b8114611ed157600080fd5b50565b600081359050611ee381611ebd565b92915050565b60008060008060808587031215611f0357611f02611a2c565b5b6000611f1187828801611ae2565b945050602085013567ffffffffffffffff811115611f3257611f31611a31565b5b611f3e87828801611e8f565b9350506040611f4f87828801611a7f565b9250506060611f6087828801611ed4565b91505092959194509250565b6000602082019050611f816000830184611c07565b92915050565b600080600080600060a08688031215611fa357611fa2611a2c565b5b6000611fb188828901611a7f565b9550506020611fc288828901611a7f565b9450506040611fd388828901611ae2565b9350506060611fe488828901611ae2565b9250506080611ff588828901611a7f565b9150509295509295909350565b60006020820190506120176000830184611be9565b92915050565b60006080820190506120326000830187611be9565b61203f6020830186611bda565b61204c6040830185611be9565b6120596060830184611c07565b95945050505050565b60006020820190506120776000830184611bda565b92915050565b61208681611ce8565b82525050565b600060808201905081810360008301526120a68187611ba1565b90506120b56020830186611bda565b6120c26040830185611bda565b6120cf606083018461207d565b95945050505050565b6000806000606084860312156120f1576120f0611a2c565b5b600084013567ffffffffffffffff81111561210f5761210e611a31565b5b61211b86828701611e8f565b935050602061212c86828701611a7f565b925050604061213d86828701611a7f565b9150509250925092565b60008151905061215681611acb565b92915050565b60006020828403121561217257612171611a2c565b5b600061218084828501612147565b91505092915050565b7f4e6f206665657320746f20636c61696d00000000000000000000000000000000600082015250565b60006121bf601083611b55565b91506121ca82612189565b602082019050919050565b600060208201905081810360008301526121ee816121b2565b9050919050565b600060408201905061220a6000830185611bda565b6122176020830184611be9565b9392505050565b60008151905061222d81611ebd565b92915050565b60006020828403121561224957612248611a2c565b5b60006122578482850161221e565b91505092915050565b7f4e487b7100000000000000000000000000000000000000000000000000000000600052603260045260246000fd5b7f4e487b7100000000000000000000000000000000000000000000000000000000600052602260045260246000fd5b600060028204905060018216806122d657607f821691505b6020821081036122e9576122e861228f565b5b50919050565b7f496e646578206f7574206f6620626f756e647300000000000000000000000000600082015250565b6000612325601383611b55565b9150612330826122ef565b602082019050919050565b6000602082019050818103600083015261235481612318565b9050919050565b7f496e76616c69642071756f746572206164647265737300000000000000000000600082015250565b6000612391601683611b55565b915061239c8261235b565b602082019050919050565b600060208201905081810360008301526123c081612384565b9050919050565b60008190508160005260206000209050919050565b60006020601f8301049050919050565b600082821b905092915050565b6000600883026124297fffffffffffffffffffffffffffffffffffffffffffffffffffffffffffffffff826123ec565b61243386836123ec565b95508019841693508086168417925050509392505050565b6000819050919050565b600061247061246b61246684611ac1565b61244b565b611ac1565b9050919050565b6000819050919050565b61248a83612455565b61249e61249682612477565b8484546123f9565b825550505050565b600090565b6124b36124a6565b6124be818484612481565b505050565b5b818110156124e2576124d76000826124ab565b6001810190506124c4565b5050565b601f821115612527576124f8816123c7565b612501846123dc565b81016020851015612510578190505b61252461251c856123dc565b8301826124c3565b50505b505050565b600082821c905092915050565b600061254a6000198460080261252c565b1980831691505092915050565b60006125638383612539565b9150826002028217905092915050565b61257c82611b4a565b67ffffffffffffffff81111561259557612594611d92565b5b61259f82546122be565b6125aa8282856124e6565b600060209050601f8311600181146125dd57600084156125cb578287015190505b6125d58582612557565b86555061263d565b601f1984166125eb866123c7565b60005b82811015612613578489015182556001820191506020850194506020810190506125ee565b86831015612630578489015161262c601f891682612539565b8355505b6001600288020188555050505b505050505050565b600060608201905061265a6000830186611be9565b818103602083015261266c8185611ba1565b905061267b604083018461207d565b949350505050565b60008154612690816122be565b61269a8186611b55565b945060018216600081146126b557600181146126cb576126fe565b60ff1983168652811515602002860193506126fe565b6126d4856123c7565b60005b838110156126f6578154818901526001820191506020810190506126d7565b808801955050505b50505092915050565b600060608201905061271c6000830186611be9565b818103602083015261272e8185612683565b905061273d604083018461207d565b949350505050565b7f496e76616c696420726563697069656e74000000000000000000000000000000600082015250565b600061277b601183611b55565b915061278682612745565b602082019050919050565b600060208201905081810360008301526127aa8161276e565b9050919050565b7f496e73756666696369656e74206f757470757420616d6f756e74000000000000600082015250565b60006127e7601a83611b55565b91506127f2826127b1565b602082019050919050565b60006020820190508181036000830152612816816127da565b9050919050565b60006060820190506128326000830186611bda565b61283f6020830185611bda565b61284c6040830184611be9565b949350505050565b7f4e487b7100000000000000000000000000000000000000000000000000000000600052601160045260246000fd5b600061288e82611ac1565b915061289983611ac1565b92508282026128a781611ac1565b915082820484148315176128be576128bd612854565b5b5092915050565b7f4e487b7100000000000000000000000000000000000000000000000000000000600052601260045260246000fd5b60006128ff82611ac1565b915061290a83611ac1565b92508261291a576129196128c5565b5b828204905092915050565b600061293082611ac1565b915061293b83611ac1565b925082820390508181111561295357612952612854565b5b92915050565b600061296482611ac1565b915061296f83611ac1565b925082820190508082111561298757612986612854565b5b92915050565b61299681611bf8565b82525050565b6129a581611ac1565b82525050565b6129b481611a36565b82525050565b610100820160008201516129d16000850182611cd9565b5060208201516129e46020850182611cd9565b5060408201516129f7604085018261298d565b506060820151612a0a6060850182611cd9565b506080820151612a1d608085018261299c565b5060a0820151612a3060a085018261299c565b5060c0820151612a4360c085018261299c565b5060e0820151612a5660e08501826129ab565b50505050565b600061010082019050612a7260008301846129ba565b92915050565b60006060820190508181036000830152612a928186612683565b9050612aa16020830185611bda565b612aae6040830184611be9565b949350505050565b7f496e76616c696420746f6b656e496e0000000000000000000000000000000000600082015250565b6000612aec600f83611b55565b9150612af782612ab6565b602082019050919050565b60006020820190508181036000830152612b1b81612adf565b9050919050565b7f496e76616c696420746f6b656e4f757400000000000000000000000000000000600082015250565b6000612b58601083611b55565b9150612b6382612b22565b602082019050919050565b60006020820190508181036000830152612b8781612b4b565b9050919050565b7f416d6f756e74206d757374206265203e20300000000000000000000000000000600082015250565b6000612bc4601283611b55565b9150612bcf82612b8e565b602082019050919050565b60006020820190508181036000830152612bf381612bb7565b9050919050565b6000819050919050565b6000612c1f612c1a612c1584612bfa565b61244b565b611a36565b9050919050565b612c2f81612c04565b82525050565b600060a082019050612c4a6000830188611bda565b612c576020830187611bda565b612c646040830186611c07565b612c716060830185611be9565b612c7e6080830184612c26565b9695505050505050565b7f4e6f2076616c696420726f75746520666f756e64000000000000000000000000600082015250565b6000612cbe601483611b55565b9150612cc982612c88565b602082019050919050565b60006020820190508181036000830152612ced81612cb1565b9050919050565b60006040820190508181036000830152612d0e8185611ba1565b9050612d1d6020830184611be9565b939250505056fea164736f6c634300081b000a",
  "linkReferences": {},
  "deployedLinkReferences": {}
}