{
  "_format": "hh-sol-artifact-1",
  "contractName": "V2Adaptor",
  "sourceName": "contracts/V2Adaptors.sol",
  "abi": [
    {
      "inputs": [
        {
          "internalType": "address",
          "name": "_swapRouter",
          "type": "address"
        },
        {
          "internalType": "address",
          "name": "_quoter",
          "type": "address"
        },
        {
          "internalType": "string",
          "name": "_name",
          "type": "string"
        }
      ],
      "stateMutability": "nonpayable",
      "type": "constructor"
    },
    {
      "inputs": [],
      "name": "name",
      "outputs": [
        {
          "internalType": "string",
          "name": "",
          "type": "string"
        }
      ],
      "stateMutability": "view",
      "type": "function"
    },
    {
      "inputs": [],
      "name": "quoter",
      "outputs": [
        {
          "internalType": "address",
          "name": "",
          "type": "address"
        }
      ],
      "stateMutability": "view",
      "type": "function"
    },
    {
      "inputs": [],
      "name": "swapRouter",
      "outputs": [
        {
          "internalType": "address",
          "name": "",
          "type": "address"
        }
      ],
      "stateMutability": "view",
      "type": "function"
    }
  ],
  "bytecode": "0x60c060405234801561001057600080fd5b506040516108fd3803806108fd83398181016040528101906100329190610285565b8273ffffffffffffffffffffffffffffffffffffffff1660808173ffffffffffffffffffffffffffffffffffffffff16815250508173ffffffffffffffffffffffffffffffffffffffff1660a08173ffffffffffffffffffffffffffffffffffffffff168152505080600090816100a99190610515565b505050506105e7565b6000604051905090565b600080fd5b600080fd5b600073ffffffffffffffffffffffffffffffffffffffff82169050919050565b60006100f1826100c6565b9050919050565b610101816100e6565b811461010c57600080fd5b50565b60008151905061011e816100f8565b92915050565b600080fd5b600080fd5b6000601f19601f8301169050919050565b7f4e487b7100000000000000000000000000000000000000000000000000000000600052604160045260246000fd5b6101778261012e565b810181811067ffffffffffffffff821117156101965761019561013f565b5b80604052505050565b60006101a96100b2565b90506101b5828261016e565b919050565b600067ffffffffffffffff8211156101d5576101d461013f565b5b6101de8261012e565b9050602081019050919050565b60005b838110156102095780820151818401526020810190506101ee565b60008484015250505050565b6000610228610223846101ba565b61019f565b90508281526020810184848401111561024457610243610129565b5b61024f8482856101eb565b509392505050565b600082601f83011261026c5761026b610124565b5b815161027c848260208601610215565b91505092915050565b60008060006060848603121561029e5761029d6100bc565b5b60006102ac8682870161010f565b93505060206102bd8682870161010f565b925050604084015167ffffffffffffffff8111156102de576102dd6100c1565b5b6102ea86828701610257565b9150509250925092565b600081519050919050565b7f4e487b7100000000000000000000000000000000000000000000000000000000600052602260045260246000fd5b6000600282049050600182168061034657607f821691505b602082108103610359576103586102ff565b5b50919050565b60008190508160005260206000209050919050565b60006020601f8301049050919050565b600082821b905092915050565b6000600883026103c17fffffffffffffffffffffffffffffffffffffffffffffffffffffffffffffffff82610384565b6103cb8683610384565b95508019841693508086168417925050509392505050565b6000819050919050565b6000819050919050565b600061041261040d610408846103e3565b6103ed565b6103e3565b9050919050565b6000819050919050565b61042c836103f7565b61044061043882610419565b848454610391565b825550505050565b600090565b610455610448565b610460818484610423565b505050565b5b818110156104845761047960008261044d565b600181019050610466565b5050565b601f8211156104c95761049a8161035f565b6104a384610374565b810160208510156104b2578190505b6104c66104be85610374565b830182610465565b50505b505050565b600082821c905092915050565b60006104ec600019846008026104ce565b1980831691505092915050565b600061050583836104db565b9150826002028217905092915050565b61051e826102f4565b67ffffffffffffffff8111156105375761053661013f565b5b610541825461032e565b61054c828285610488565b600060209050601f83116001811461057f576000841561056d578287015190505b61057785826104f9565b8655506105df565b601f19841661058d8661035f565b60005b828110156105b557848901518255600182019150602085019450602081019050610590565b868310156105d257848901516105ce601f8916826104db565b8355505b6001600288020188555050505b505050505050565b60805160a0516102f161060c60003960006101540152600061013001526102f16000f3fe608060405234801561001057600080fd5b50600436106100415760003560e01c806306fdde0314610046578063c31c9c0714610064578063c6bbd5a714610082575b600080fd5b61004e6100a0565b60405161005b9190610206565b60405180910390f35b61006c61012e565b6040516100799190610269565b60405180910390f35b61008a610152565b6040516100979190610269565b60405180910390f35b600080546100ad906102b3565b80601f01602080910402602001604051908101604052809291908181526020018280546100d9906102b3565b80156101265780601f106100fb57610100808354040283529160200191610126565b820191906000526020600020905b81548152906001019060200180831161010957829003601f168201915b505050505081565b7f000000000000000000000000000000000000000000000000000000000000000081565b7f000000000000000000000000000000000000000000000000000000000000000081565b600081519050919050565b600082825260208201905092915050565b60005b838110156101b0578082015181840152602081019050610195565b60008484015250505050565b6000601f19601f8301169050919050565b60006101d882610176565b6101e28185610181565b93506101f2818560208601610192565b6101fb816101bc565b840191505092915050565b6000602082019050818103600083015261022081846101cd565b905092915050565b600073ffffffffffffffffffffffffffffffffffffffff82169050919050565b600061025382610228565b9050919050565b61026381610248565b82525050565b600060208201905061027e600083018461025a565b92915050565b7f4e487b7100000000000000000000000000000000000000000000000000000000600052602260045260246000fd5b600060028204905060018216806102cb57607f821691505b6020821081036102de576102dd610284565b5b5091905056fea164736f6c634300081b000a",
  "linkReferences": {},
  "deployedLinkReferences": {}
}