{
  "_format": "hh-sol-artifact-1",
  "contractName": "AdaptorFactory",
  "sourceName": "contracts/AdaptorFactory.sol",
  "abi": [
    {
      "inputs": [
        {
          "internalType": "address",
          "name": "_swapRouter",
          "type": "address"
        },
        {
          "internalType": "address",
          "name": "_quoter",
          "type": "address"
        },
        {
          "internalType": "string",
          "name": "_name",
          "type": "string"
        }
      ],
      "name": "deploy",
      "outputs": [
        {
          "internalType": "string",
          "name": "",
          "type": "string"
        }
      ],
      "stateMutability": "view",
      "type": "function"
    }
  ],
  "bytecode": "0x6080604052348015600f57600080fd5b5061038d8061001f6000396000f3fe608060405234801561001057600080fd5b506004361061002b5760003560e01c80632e7f138a14610030575b600080fd5b61004a6004803603810190610045919061023c565b610060565b604051610057919061032a565b60405180910390f35b606060405180606001604052806034815260200161034d6034913990509392505050565b6000604051905090565b600080fd5b600080fd5b600073ffffffffffffffffffffffffffffffffffffffff82169050919050565b60006100c382610098565b9050919050565b6100d3816100b8565b81146100de57600080fd5b50565b6000813590506100f0816100ca565b92915050565b600080fd5b600080fd5b6000601f19601f8301169050919050565b7f4e487b7100000000000000000000000000000000000000000000000000000000600052604160045260246000fd5b61014982610100565b810181811067ffffffffffffffff8211171561016857610167610111565b5b80604052505050565b600061017b610084565b90506101878282610140565b919050565b600067ffffffffffffffff8211156101a7576101a6610111565b5b6101b082610100565b9050602081019050919050565b82818337600083830152505050565b60006101df6101da8461018c565b610171565b9050828152602081018484840111156101fb576101fa6100fb565b5b6102068482856101bd565b509392505050565b600082601f830112610223576102226100f6565b5b81356102338482602086016101cc565b91505092915050565b6000806000606084860312156102555761025461008e565b5b6000610263868287016100e1565b9350506020610274868287016100e1565b925050604084013567ffffffffffffffff81111561029557610294610093565b5b6102a18682870161020e565b9150509250925092565b600081519050919050565b600082825260208201905092915050565b60005b838110156102e55780820151818401526020810190506102ca565b60008484015250505050565b60006102fc826102ab565b61030681856102b6565b93506103168185602086016102c7565b61031f81610100565b840191505092915050565b6000602082019050818103600083015261034481846102f1565b90509291505056fe5468697320697320616e206578616d706c652066756e6374696f6e20696e207468652041646170746f7220636f6e74726163742ea164736f6c634300081b000a",
  "linkReferences": {},
  "deployedLinkReferences": {}
}